{"abi":[{"type":"constructor","inputs":[{"name":"contractStorageNumber","type":"address","internalType":"address"},{"name":"yptoTokenAddress","type":"address","internalType":"address"}],"stateMutability":"payable"},{"type":"function","name":"MAX_BET_VALUE","inputs":[],"outputs":[{"name":"","type":"uint256","internalType":"uint256"}],"stateMutability":"view"},{"type":"function","name":"MIN_BET_VALUE","inputs":[],"outputs":[{"name":"","type":"uint256","internalType":"uint256"}],"stateMutability":"view"},{"type":"function","name":"generateLotteryNumbers","inputs":[{"name":"numbers","type":"uint8[]","internalType":"uint8[]"},{"name":"betValue","type":"uint256","internalType":"uint256"},{"name":"currency","type":"uint8","internalType":"enum Currency"}],"outputs":[{"name":"","type":"uint8[]","internalType":"uint8[]"}],"stateMutability":"payable"},{"type":"function","name":"iQrypto","inputs":[],"outputs":[{"name":"","type":"address","internalType":"address payable"}],"stateMutability":"view"},{"type":"function","name":"owner","inputs":[],"outputs":[{"name":"","type":"address","internalType":"address"}],"stateMutability":"view"},{"type":"function","name":"renounceOwnership","inputs":[],"outputs":[],"stateMutability":"nonpayable"},{"type":"function","name":"storageNumber","inputs":[],"outputs":[{"name":"","type":"address","internalType":"contract StorageNumber"}],"stateMutability":"view"},{"type":"function","name":"transferOwnership","inputs":[{"name":"newOwner","type":"address","internalType":"address"}],"outputs":[],"stateMutability":"nonpayable"},{"type":"function","name":"withdraw","inputs":[{"name":"amount","type":"uint256","internalType":"uint256"},{"name":"currency","type":"uint8","internalType":"enum Currency"}],"outputs":[],"stateMutability":"nonpayable"},{"type":"function","name":"yptoToken","inputs":[],"outputs":[{"name":"","type":"address","internalType":"contract IERC20"}],"stateMutability":"view"},{"type":"event","name":"OwnershipTransferred","inputs":[{"name":"previousOwner","type":"address","indexed":true,"internalType":"address"},{"name":"newOwner","type":"address","indexed":true,"internalType":"address"}],"anonymous":false},{"type":"event","name":"WinningNumbersGenerated","inputs":[{"name":"owner","type":"address","indexed":true,"internalType":"address"},{"name":"inputNumbers","type":"uint8[]","indexed":false,"internalType":"uint8[]"},{"name":"drawnRandomNumbers","type":"uint8[]","indexed":false,"internalType":"uint8[]"},{"name":"_winningNumbers","type":"uint8[]","indexed":false,"internalType":"uint8[]"},{"name":"reward","type":"uint256","indexed":false,"internalType":"uint256"},{"name":"currency","type":"uint8","indexed":false,"internalType":"enum Currency"}],"anonymous":false},{"type":"error","name":"InsufficientFunds","inputs":[{"name":"available","type":"uint256","internalType":"uint256"},{"name":"requested","type":"uint256","internalType":"uint256"},{"name":"currency","type":"uint8","internalType":"enum Currency"}]},{"type":"error","name":"InvalidBetRange","inputs":[{"name":"value","type":"uint256","internalType":"uint256"}]},{"type":"error","name":"InvalidCurrency","inputs":[]},{"type":"error","name":"NoNumber","inputs":[]},{"type":"error","name":"OwnableInvalidOwner","inputs":[{"name":"owner","type":"address","internalType":"address"}]},{"type":"error","name":"OwnableUnauthorizedAccount","inputs":[{"name":"account","type":"address","internalType":"address"}]}],"bytecode":{"object":"0x60a060405260405161235c38038061235c8339818101604052810190610025919061030d565b335f73ffffffffffffffffffffffffffffffffffffffff168173ffffffffffffffffffffffffffffffffffffffff1603610096575f6040517f1e4fbdf700000000000000000000000000000000000000000000000000000000815260040161008d919061035a565b60405180910390fd5b6100a5816101ee60201b60201c565b508160015f6101000a81548173ffffffffffffffffffffffffffffffffffffffff021916908373ffffffffffffffffffffffffffffffffffffffff16021790555060015f9054906101000a900473ffffffffffffffffffffffffffffffffffffffff1673ffffffffffffffffffffffffffffffffffffffff16638da5cb5b6040518163ffffffff1660e01b8152600401602060405180830381865afa158015610150573d5f5f3e3d5ffd5b505050506040513d601f19601f820116820180604052508101906101749190610373565b60025f6101000a81548173ffffffffffffffffffffffffffffffffffffffff021916908373ffffffffffffffffffffffffffffffffffffffff1602179055508073ffffffffffffffffffffffffffffffffffffffff1660808173ffffffffffffffffffffffffffffffffffffffff1681525050505061039e565b5f5f5f9054906101000a900473ffffffffffffffffffffffffffffffffffffffff169050815f5f6101000a81548173ffffffffffffffffffffffffffffffffffffffff021916908373ffffffffffffffffffffffffffffffffffffffff1602179055508173ffffffffffffffffffffffffffffffffffffffff168173ffffffffffffffffffffffffffffffffffffffff167f8be0079c531659141344cd1fd0a4f28419497f9722a3daafe3b4186f6b6457e060405160405180910390a35050565b5f5ffd5b5f73ffffffffffffffffffffffffffffffffffffffff82169050919050565b5f6102dc826102b3565b9050919050565b6102ec816102d2565b81146102f6575f5ffd5b50565b5f81519050610307816102e3565b92915050565b5f5f60408385031215610323576103226102af565b5b5f610330858286016102f9565b9250506020610341858286016102f9565b9150509250929050565b610354816102d2565b82525050565b5f60208201905061036d5f83018461034b565b92915050565b5f60208284031215610388576103876102af565b5b5f610395848285016102f9565b91505092915050565b608051611f8a6103d25f395f81816103fd015281816104e00152818161080b01528181610d350152610f580152611f8a5ff3fe608060405260043610610090575f3560e01c8063903d429611610058578063903d42961461015257806393fd82ea1461017a578063d917518e146101aa578063f2fde38b146101d4578063f6e131e7146101fc57610090565b8063353086e2146100945780635394772a146100be578063715018a6146100e85780637795a8ba146100fe5780638da5cb5b14610128575b5f5ffd5b34801561009f575f5ffd5b506100a8610226565b6040516100b59190611368565b60405180910390f35b3480156100c9575f5ffd5b506100d2610232565b6040516100df9190611368565b60405180910390f35b3480156100f3575f5ffd5b506100fc61023c565b005b348015610109575f5ffd5b5061011261024f565b60405161011f91906113c0565b60405180910390f35b348015610133575f5ffd5b5061013c610274565b60405161014991906113f9565b60405180910390f35b34801561015d575f5ffd5b5061017860048036038101906101739190611470565b61029b565b005b610194600480360381019061018f9190611634565b6105fc565b6040516101a19190611757565b60405180910390f35b3480156101b5575f5ffd5b506101be610ead565b6040516101cb91906117d2565b60405180910390f35b3480156101df575f5ffd5b506101fa60048036038101906101f59190611815565b610ed2565b005b348015610207575f5ffd5b50610210610f56565b60405161021d9190611860565b60405180910390f35b674563918244f4000081565b655af3107a400081565b610244610f7a565b61024d5f611001565b565b60025f9054906101000a900473ffffffffffffffffffffffffffffffffffffffff1681565b5f5f5f9054906101000a900473ffffffffffffffffffffffffffffffffffffffff16905090565b6102a3610f7a565b5f5f60018111156102b7576102b6611879565b5b8260018111156102ca576102c9611879565b5b036103d0574790508083111561031b578083836040517f1ed1b377000000000000000000000000000000000000000000000000000000008152600401610312939291906118ec565b60405180910390fd5b5f610324610274565b73ffffffffffffffffffffffffffffffffffffffff16846040516103479061194e565b5f6040518083038185875af1925050503d805f8114610381576040519150601f19603f3d011682016040523d82523d5f602084013e610386565b606091505b50509050806103ca576040517f08c379a00000000000000000000000000000000000000000000000000000000081526004016103c1906119bc565b60405180910390fd5b506105f7565b6001808111156103e3576103e2611879565b5b8260018111156103f6576103f5611879565b5b036105c4577f000000000000000000000000000000000000000000000000000000000000000073ffffffffffffffffffffffffffffffffffffffff166370a08231306040518263ffffffff1660e01b815260040161045491906113f9565b602060405180830381865afa15801561046f573d5f5f3e3d5ffd5b505050506040513d601f19601f8201168201806040525081019061049391906119ee565b9050808311156104de578083836040517f1ed1b3770000000000000000000000000000000000000000000000000000000081526004016104d5939291906118ec565b60405180910390fd5b7f000000000000000000000000000000000000000000000000000000000000000073ffffffffffffffffffffffffffffffffffffffff1663a9059cbb610522610274565b856040518363ffffffff1660e01b8152600401610540929190611a19565b6020604051808303815f875af115801561055c573d5f5f3e3d5ffd5b505050506040513d601f19601f820116820180604052508101906105809190611a75565b6105bf576040517f08c379a00000000000000000000000000000000000000000000000000000000081526004016105b6906119bc565b60405180910390fd5b6105f6565b6040517ff599342800000000000000000000000000000000000000000000000000000000815260040160405180910390fd5b5b505050565b606060018451101561063a576040517f8c81f48300000000000000000000000000000000000000000000000000000000815260040160405180910390fd5b5f5f600181111561064e5761064d611879565b5b83600181111561066157610660611879565b5b036107725760015f9054906101000a900473ffffffffffffffffffffffffffffffffffffffff1673ffffffffffffffffffffffffffffffffffffffff16631a8797c66040518163ffffffff1660e01b8152600401602060405180830381865afa1580156106d0573d5f5f3e3d5ffd5b505050506040513d601f19601f820116820180604052508101906106f491906119ee565b346106ff9190611acd565b935084518461070e9190611b2d565b9050655af3107a400081108061072b5750674563918244f4000081115b1561076d57836040517fae4a39050000000000000000000000000000000000000000000000000000000081526004016107649190611368565b60405180910390fd5b610926565b60018081111561078557610784611879565b5b83600181111561079857610797611879565b5b036108ea578451846107aa9190611b2d565b9050655af3107a40008110806107c75750674563918244f4000081115b1561080957836040517fae4a39050000000000000000000000000000000000000000000000000000000081526004016108009190611368565b60405180910390fd5b7f000000000000000000000000000000000000000000000000000000000000000073ffffffffffffffffffffffffffffffffffffffff166323b872dd3330876040518463ffffffff1660e01b815260040161086693929190611b5d565b6020604051808303815f875af1158015610882573d5f5f3e3d5ffd5b505050506040513d601f19601f820116820180604052508101906108a69190611a75565b6108e5576040517f08c379a00000000000000000000000000000000000000000000000000000000081526004016108dc90611bdc565b60405180910390fd5b610925565b6040517f08c379a000000000000000000000000000000000000000000000000000000000815260040161091c90611c44565b60405180910390fd5b5b5f60015f9054906101000a900473ffffffffffffffffffffffffffffffffffffffff1673ffffffffffffffffffffffffffffffffffffffff1663c2a2a6d360015f9054906101000a900473ffffffffffffffffffffffffffffffffffffffff1673ffffffffffffffffffffffffffffffffffffffff16631a8797c66040518163ffffffff1660e01b8152600401602060405180830381865afa1580156109ce573d5f5f3e3d5ffd5b505050506040513d601f19601f820116820180604052508101906109f291906119ee565b5f6040518363ffffffff1660e01b8152600401610a0f9190611c71565b60206040518083038185885af1158015610a2b573d5f5f3e3d5ffd5b50505050506040513d601f19601f82011682018060405250810190610a5091906119ee565b90505f610a676004836110c290919063ffffffff16565b90505f600460ff1667ffffffffffffffff811115610a8857610a876114c2565b5b604051908082528060200260200182016040528015610ab65781602001602082028036833780820191505090505b5090505f5f90505f5f90505b600460ff168160ff161015610b6157610af88a858360ff1681518110610aeb57610aea611c8a565b5b602002602001015161125e565b15610b5457838160ff1681518110610b1357610b12611c8a565b5b6020026020010151838360ff1681518110610b3157610b30611c8a565b5b602002602001019060ff16908160ff16815250508180610b5090611cb7565b9250505b8080600101915050610ac2565b505f8160ff1667ffffffffffffffff811115610b8057610b7f6114c2565b5b604051908082528060200260200182016040528015610bae5781602001602082028036833780820191505090505b5090505f5f90505b8260ff168160ff161015610c1957838160ff1681518110610bda57610bd9611c8a565b5b6020026020010151828260ff1681518110610bf857610bf7611c8a565b5b602002602001019060ff16908160ff16815250508080600101915050610bb6565b505f610c25838b6112c2565b90505f811115610e46575f6001811115610c4257610c41611879565b5b896001811115610c5557610c54611879565b5b03610d08575f3373ffffffffffffffffffffffffffffffffffffffff1682604051610c7f9061194e565b5f6040518083038185875af1925050503d805f8114610cb9576040519150601f19603f3d011682016040523d82523d5f602084013e610cbe565b606091505b5050905080610d02576040517f08c379a0000000000000000000000000000000000000000000000000000000008152600401610cf990611d29565b60405180910390fd5b50610e45565b600180811115610d1b57610d1a611879565b5b896001811115610d2e57610d2d611879565b5b03610e12577f000000000000000000000000000000000000000000000000000000000000000073ffffffffffffffffffffffffffffffffffffffff1663a9059cbb33836040518363ffffffff1660e01b8152600401610d8e929190611a19565b6020604051808303815f875af1158015610daa573d5f5f3e3d5ffd5b505050506040513d601f19601f82011682018060405250810190610dce9190611a75565b610e0d576040517f08c379a0000000000000000000000000000000000000000000000000000000008152600401610e0490611d91565b60405180910390fd5b610e44565b6040517ff599342800000000000000000000000000000000000000000000000000000000815260040160405180910390fd5b5b5b3373ffffffffffffffffffffffffffffffffffffffff167f9f0a76cc9f304cab92c652c43efdbe802f9a2f972c9e8ffe19f6c3fc521f46aa8c8785858e604051610e94959493929190611daf565b60405180910390a2849750505050505050509392505050565b60015f9054906101000a900473ffffffffffffffffffffffffffffffffffffffff1681565b610eda610f7a565b5f73ffffffffffffffffffffffffffffffffffffffff168173ffffffffffffffffffffffffffffffffffffffff1603610f4a575f6040517f1e4fbdf7000000000000000000000000000000000000000000000000000000008152600401610f4191906113f9565b60405180910390fd5b610f5381611001565b50565b7f000000000000000000000000000000000000000000000000000000000000000081565b610f82611349565b73ffffffffffffffffffffffffffffffffffffffff16610fa0610274565b73ffffffffffffffffffffffffffffffffffffffff1614610fff57610fc3611349565b6040517f118cdaa7000000000000000000000000000000000000000000000000000000008152600401610ff691906113f9565b60405180910390fd5b565b5f5f5f9054906101000a900473ffffffffffffffffffffffffffffffffffffffff169050815f5f6101000a81548173ffffffffffffffffffffffffffffffffffffffff021916908373ffffffffffffffffffffffffffffffffffffffff1602179055508173ffffffffffffffffffffffffffffffffffffffff168173ffffffffffffffffffffffffffffffffffffffff167f8be0079c531659141344cd1fd0a4f28419497f9722a3daafe3b4186f6b6457e060405160405180910390a35050565b60605f8260ff1667ffffffffffffffff8111156110e2576110e16114c2565b5b6040519080825280602002602001820160405280156111105781602001602082028036833780820191505090505b5090505f5f5f90505f5f90505b8560ff168260ff16108015611135575060338160ff16105b15611209576001601f60058361114b9190611e15565b60ff1689901c1661115c9190611e51565b92505f5f90505f5f90505b8360ff168160ff1610156111b5578460ff16868260ff168151811061118f5761118e611c8a565b5b602002602001015160ff16036111a857600191506111b5565b8080600101915050611167565b50806111f55783858460ff16815181106111d2576111d1611c8a565b5b602002602001019060ff16908160ff168152505082806111f190611cb7565b9350505b50808061120190611cb7565b91505061111d565b508460ff168160ff1614611252576040517f08c379a000000000000000000000000000000000000000000000000000000000815260040161124990611ef5565b60405180910390fd5b82935050505092915050565b5f5f5f90505b83518160ff1610156112b7578260ff16848260ff168151811061128a57611289611c8a565b5b602002602001015160ff16036112a45760019150506112bc565b80806112af90611cb7565b915050611264565b505f90505b92915050565b5f60018360ff16036112e2578160026112db9190611f13565b9050611343565b60028360ff1603611301578160056112fa9190611f13565b9050611343565b60038360ff16036113205781601e6113199190611f13565b9050611343565b60048360ff160361133f578160fa6113389190611f13565b9050611343565b5f90505b92915050565b5f33905090565b5f819050919050565b61136281611350565b82525050565b5f60208201905061137b5f830184611359565b92915050565b5f73ffffffffffffffffffffffffffffffffffffffff82169050919050565b5f6113aa82611381565b9050919050565b6113ba816113a0565b82525050565b5f6020820190506113d35f8301846113b1565b92915050565b5f6113e382611381565b9050919050565b6113f3816113d9565b82525050565b5f60208201905061140c5f8301846113ea565b92915050565b5f604051905090565b5f5ffd5b5f5ffd5b61142c81611350565b8114611436575f5ffd5b50565b5f8135905061144781611423565b92915050565b60028110611459575f5ffd5b50565b5f8135905061146a8161144d565b92915050565b5f5f604083850312156114865761148561141b565b5b5f61149385828601611439565b92505060206114a48582860161145c565b9150509250929050565b5f5ffd5b5f601f19601f8301169050919050565b7f4e487b71000000000000000000000000000000000000000000000000000000005f52604160045260245ffd5b6114f8826114b2565b810181811067ffffffffffffffff82111715611517576115166114c2565b5b80604052505050565b5f611529611412565b905061153582826114ef565b919050565b5f67ffffffffffffffff821115611554576115536114c2565b5b602082029050602081019050919050565b5f5ffd5b5f60ff82169050919050565b61157e81611569565b8114611588575f5ffd5b50565b5f8135905061159981611575565b92915050565b5f6115b16115ac8461153a565b611520565b905080838252602082019050602084028301858111156115d4576115d3611565565b5b835b818110156115fd57806115e9888261158b565b8452602084019350506020810190506115d6565b5050509392505050565b5f82601f83011261161b5761161a6114ae565b5b813561162b84826020860161159f565b91505092915050565b5f5f5f6060848603121561164b5761164a61141b565b5b5f84013567ffffffffffffffff8111156116685761166761141f565b5b61167486828701611607565b935050602061168586828701611439565b92505060406116968682870161145c565b9150509250925092565b5f81519050919050565b5f82825260208201905092915050565b5f819050602082019050919050565b6116d281611569565b82525050565b5f6116e383836116c9565b60208301905092915050565b5f602082019050919050565b5f611705826116a0565b61170f81856116aa565b935061171a836116ba565b805f5b8381101561174a57815161173188826116d8565b975061173c836116ef565b92505060018101905061171d565b5085935050505092915050565b5f6020820190508181035f83015261176f81846116fb565b905092915050565b5f819050919050565b5f61179a61179561179084611381565b611777565b611381565b9050919050565b5f6117ab82611780565b9050919050565b5f6117bc826117a1565b9050919050565b6117cc816117b2565b82525050565b5f6020820190506117e55f8301846117c3565b92915050565b6117f4816113d9565b81146117fe575f5ffd5b50565b5f8135905061180f816117eb565b92915050565b5f6020828403121561182a5761182961141b565b5b5f61183784828501611801565b91505092915050565b5f61184a826117a1565b9050919050565b61185a81611840565b82525050565b5f6020820190506118735f830184611851565b92915050565b7f4e487b71000000000000000000000000000000000000000000000000000000005f52602160045260245ffd5b600281106118b7576118b6611879565b5b50565b5f8190506118c7826118a6565b919050565b5f6118d6826118ba565b9050919050565b6118e6816118cc565b82525050565b5f6060820190506118ff5f830186611359565b61190c6020830185611359565b61191960408301846118dd565b949350505050565b5f81905092915050565b50565b5f6119395f83611921565b91506119448261192b565b5f82019050919050565b5f6119588261192e565b9150819050919050565b5f82825260208201905092915050565b7f5769746864726177206661696c656400000000000000000000000000000000005f82015250565b5f6119a6600f83611962565b91506119b182611972565b602082019050919050565b5f6020820190508181035f8301526119d38161199a565b9050919050565b5f815190506119e881611423565b92915050565b5f60208284031215611a0357611a0261141b565b5b5f611a10848285016119da565b91505092915050565b5f604082019050611a2c5f8301856113ea565b611a396020830184611359565b9392505050565b5f8115159050919050565b611a5481611a40565b8114611a5e575f5ffd5b50565b5f81519050611a6f81611a4b565b92915050565b5f60208284031215611a8a57611a8961141b565b5b5f611a9784828501611a61565b91505092915050565b7f4e487b71000000000000000000000000000000000000000000000000000000005f52601160045260245ffd5b5f611ad782611350565b9150611ae283611350565b9250828203905081811115611afa57611af9611aa0565b5b92915050565b7f4e487b71000000000000000000000000000000000000000000000000000000005f52601260045260245ffd5b5f611b3782611350565b9150611b4283611350565b925082611b5257611b51611b00565b5b828204905092915050565b5f606082019050611b705f8301866113ea565b611b7d60208301856113ea565b611b8a6040830184611359565b949350505050565b7f5970746f207472616e73666572206661696c65640000000000000000000000005f82015250565b5f611bc6601483611962565b9150611bd182611b92565b602082019050919050565b5f6020820190508181035f830152611bf381611bba565b9050919050565b7f496e76616c69642063757272656e6379000000000000000000000000000000005f82015250565b5f611c2e601083611962565b9150611c3982611bfa565b602082019050919050565b5f6020820190508181035f830152611c5b81611c22565b9050919050565b611c6b81611a40565b82525050565b5f602082019050611c845f830184611c62565b92915050565b7f4e487b71000000000000000000000000000000000000000000000000000000005f52603260045260245ffd5b5f611cc182611569565b915060ff8203611cd457611cd3611aa0565b5b600182019050919050565b7f4661696c656420746f2073656e642045746865720000000000000000000000005f82015250565b5f611d13601483611962565b9150611d1e82611cdf565b602082019050919050565b5f6020820190508181035f830152611d4081611d07565b9050919050565b7f5970746f20726577617264207472616e73666572206661696c656400000000005f82015250565b5f611d7b601b83611962565b9150611d8682611d47565b602082019050919050565b5f6020820190508181035f830152611da881611d6f565b9050919050565b5f60a0820190508181035f830152611dc781886116fb565b90508181036020830152611ddb81876116fb565b90508181036040830152611def81866116fb565b9050611dfe6060830185611359565b611e0b60808301846118dd565b9695505050505050565b5f611e1f82611569565b9150611e2a83611569565b9250828202611e3881611569565b9150808214611e4a57611e49611aa0565b5b5092915050565b5f611e5b82611569565b9150611e6683611569565b9250828201905060ff811115611e7f57611e7e611aa0565b5b92915050565b7f4e6f7420656e6f75676820756e6971756520352d6269742076616c75657320695f8201527f6e20696e70757400000000000000000000000000000000000000000000000000602082015250565b5f611edf602783611962565b9150611eea82611e85565b604082019050919050565b5f6020820190508181035f830152611f0c81611ed3565b9050919050565b5f611f1d82611350565b9150611f2883611350565b9250828202611f3681611350565b91508282048414831517611f4d57611f4c611aa0565b5b509291505056fea2646970667358221220658c7aac7a9e7f1f7e52afb62624caec8dd2d2f091aa0279cdf9c18003824b9b64736f6c634300081c0033","linkReferences":{}},"methodIdentifiers":{"MAX_BET_VALUE()":"353086e2","MIN_BET_VALUE()":"5394772a","generateLotteryNumbers(uint8[],uint256,uint8)":"93fd82ea","iQrypto()":"7795a8ba","owner()":"8da5cb5b","renounceOwnership()":"715018a6","storageNumber()":"d917518e","transferOwnership(address)":"f2fde38b","withdraw(uint256,uint8)":"903d4296","yptoToken()":"f6e131e7"},"id":14}