{"abi":[{"type":"constructor","inputs":[{"name":"initialSupply","type":"uint256","internalType":"uint256"}],"stateMutability":"nonpayable"},{"type":"function","name":"allowance","inputs":[{"name":"owner","type":"address","internalType":"address"},{"name":"spender","type":"address","internalType":"address"}],"outputs":[{"name":"","type":"uint256","internalType":"uint256"}],"stateMutability":"view"},{"type":"function","name":"approve","inputs":[{"name":"spender","type":"address","internalType":"address"},{"name":"value","type":"uint256","internalType":"uint256"}],"outputs":[{"name":"","type":"bool","internalType":"bool"}],"stateMutability":"nonpayable"},{"type":"function","name":"balanceOf","inputs":[{"name":"account","type":"address","internalType":"address"}],"outputs":[{"name":"","type":"uint256","internalType":"uint256"}],"stateMutability":"view"},{"type":"function","name":"burn","inputs":[{"name":"from","type":"address","internalType":"address"},{"name":"amount","type":"uint256","internalType":"uint256"}],"outputs":[],"stateMutability":"nonpayable"},{"type":"function","name":"decimals","inputs":[],"outputs":[{"name":"","type":"uint8","internalType":"uint8"}],"stateMutability":"view"},{"type":"function","name":"distribute","inputs":[{"name":"to","type":"address","internalType":"address"},{"name":"amount","type":"uint256","internalType":"uint256"}],"outputs":[{"name":"","type":"bool","internalType":"bool"}],"stateMutability":"nonpayable"},{"type":"function","name":"maxDistributionPerWallet","inputs":[],"outputs":[{"name":"","type":"uint256","internalType":"uint256"}],"stateMutability":"view"},{"type":"function","name":"mint","inputs":[{"name":"to","type":"address","internalType":"address"},{"name":"amount","type":"uint256","internalType":"uint256"}],"outputs":[],"stateMutability":"nonpayable"},{"type":"function","name":"name","inputs":[],"outputs":[{"name":"","type":"string","internalType":"string"}],"stateMutability":"view"},{"type":"function","name":"owner","inputs":[],"outputs":[{"name":"","type":"address","internalType":"address"}],"stateMutability":"view"},{"type":"function","name":"renounceOwnership","inputs":[],"outputs":[],"stateMutability":"nonpayable"},{"type":"function","name":"setAuthorizedContract","inputs":[{"name":"_contract","type":"address","internalType":"address"}],"outputs":[],"stateMutability":"nonpayable"},{"type":"function","name":"symbol","inputs":[],"outputs":[{"name":"","type":"string","internalType":"string"}],"stateMutability":"view"},{"type":"function","name":"totalDistributed","inputs":[{"name":"","type":"address","internalType":"address"}],"outputs":[{"name":"","type":"uint256","internalType":"uint256"}],"stateMutability":"view"},{"type":"function","name":"totalSupply","inputs":[],"outputs":[{"name":"","type":"uint256","internalType":"uint256"}],"stateMutability":"view"},{"type":"function","name":"transfer","inputs":[{"name":"recipient","type":"address","internalType":"address"},{"name":"amount","type":"uint256","internalType":"uint256"}],"outputs":[{"name":"","type":"bool","internalType":"bool"}],"stateMutability":"nonpayable"},{"type":"function","name":"transferFrom","inputs":[{"name":"sender","type":"address","internalType":"address"},{"name":"recipient","type":"address","internalType":"address"},{"name":"amount","type":"uint256","internalType":"uint256"}],"outputs":[{"name":"","type":"bool","internalType":"bool"}],"stateMutability":"nonpayable"},{"type":"function","name":"transferGenerationNumber","inputs":[{"name":"generatorWallet","type":"address","internalType":"address"}],"outputs":[{"name":"","type":"bool","internalType":"bool"}],"stateMutability":"nonpayable"},{"type":"function","name":"transferOwnership","inputs":[{"name":"newOwner","type":"address","internalType":"address"}],"outputs":[],"stateMutability":"nonpayable"},{"type":"event","name":"Approval","inputs":[{"name":"owner","type":"address","indexed":true,"internalType":"address"},{"name":"spender","type":"address","indexed":true,"internalType":"address"},{"name":"value","type":"uint256","indexed":false,"internalType":"uint256"}],"anonymous":false},{"type":"event","name":"OwnershipTransferred","inputs":[{"name":"previousOwner","type":"address","indexed":true,"internalType":"address"},{"name":"newOwner","type":"address","indexed":true,"internalType":"address"}],"anonymous":false},{"type":"event","name":"Transfer","inputs":[{"name":"from","type":"address","indexed":true,"internalType":"address"},{"name":"to","type":"address","indexed":true,"internalType":"address"},{"name":"value","type":"uint256","indexed":false,"internalType":"uint256"}],"anonymous":false},{"type":"error","name":"ERC20InsufficientAllowance","inputs":[{"name":"spender","type":"address","internalType":"address"},{"name":"allowance","type":"uint256","internalType":"uint256"},{"name":"needed","type":"uint256","internalType":"uint256"}]},{"type":"error","name":"ERC20InsufficientBalance","inputs":[{"name":"sender","type":"address","internalType":"address"},{"name":"balance","type":"uint256","internalType":"uint256"},{"name":"needed","type":"uint256","internalType":"uint256"}]},{"type":"error","name":"ERC20InvalidApprover","inputs":[{"name":"approver","type":"address","internalType":"address"}]},{"type":"error","name":"ERC20InvalidReceiver","inputs":[{"name":"receiver","type":"address","internalType":"address"}]},{"type":"error","name":"ERC20InvalidSender","inputs":[{"name":"sender","type":"address","internalType":"address"}]},{"type":"error","name":"ERC20InvalidSpender","inputs":[{"name":"spender","type":"address","internalType":"address"}]},{"type":"error","name":"OwnableInvalidOwner","inputs":[{"name":"owner","type":"address","internalType":"address"}]},{"type":"error","name":"OwnableUnauthorizedAccount","inputs":[{"name":"account","type":"address","internalType":"address"}]},{"type":"error","name":"TokenUnauthorizedAccount","inputs":[{"name":"account","type":"address","internalType":"address"}]}],"bytecode":{"object":"0x608060405268056bc75e2d6310000060085534801561001c575f5ffd5b506040516120d93803806120d9833981810160405281019061003e91906104fb565b336040518060400160405280600c81526020017f4951727970746f546f6b656e00000000000000000000000000000000000000008152506040518060400160405280600481526020017f5970746f0000000000000000000000000000000000000000000000000000000081525081600390816100ba919061075a565b5080600490816100ca919061075a565b5050505f73ffffffffffffffffffffffffffffffffffffffff168173ffffffffffffffffffffffffffffffffffffffff160361013d575f6040517f1e4fbdf70000000000000000000000000000000000000000000000000000000081526004016101349190610868565b60405180910390fd5b61014c8161016360201b60201c565b5061015d308261022660201b60201c565b5061093e565b5f60055f9054906101000a900473ffffffffffffffffffffffffffffffffffffffff1690508160055f6101000a81548173ffffffffffffffffffffffffffffffffffffffff021916908373ffffffffffffffffffffffffffffffffffffffff1602179055508173ffffffffffffffffffffffffffffffffffffffff168173ffffffffffffffffffffffffffffffffffffffff167f8be0079c531659141344cd1fd0a4f28419497f9722a3daafe3b4186f6b6457e060405160405180910390a35050565b5f73ffffffffffffffffffffffffffffffffffffffff168273ffffffffffffffffffffffffffffffffffffffff1603610296575f6040517fec442f0500000000000000000000000000000000000000000000000000000000815260040161028d9190610868565b60405180910390fd5b6102a75f83836102ab60201b60201c565b5050565b5f73ffffffffffffffffffffffffffffffffffffffff168373ffffffffffffffffffffffffffffffffffffffff16036102fb578060025f8282546102ef91906108ae565b925050819055506103c9565b5f5f5f8573ffffffffffffffffffffffffffffffffffffffff1673ffffffffffffffffffffffffffffffffffffffff1681526020019081526020015f2054905081811015610384578381836040517fe450d38c00000000000000000000000000000000000000000000000000000000815260040161037b939291906108f0565b60405180910390fd5b8181035f5f8673ffffffffffffffffffffffffffffffffffffffff1673ffffffffffffffffffffffffffffffffffffffff1681526020019081526020015f2081905550505b5f73ffffffffffffffffffffffffffffffffffffffff168273ffffffffffffffffffffffffffffffffffffffff1603610410578060025f828254039250508190555061045a565b805f5f8473ffffffffffffffffffffffffffffffffffffffff1673ffffffffffffffffffffffffffffffffffffffff1681526020019081526020015f205f82825401925050819055505b8173ffffffffffffffffffffffffffffffffffffffff168373ffffffffffffffffffffffffffffffffffffffff167fddf252ad1be2c89b69c2b068fc378daa952ba7f163c4a11628f55a4df523b3ef836040516104b79190610925565b60405180910390a3505050565b5f5ffd5b5f819050919050565b6104da816104c8565b81146104e4575f5ffd5b50565b5f815190506104f5816104d1565b92915050565b5f602082840312156105105761050f6104c4565b5b5f61051d848285016104e7565b91505092915050565b5f81519050919050565b7f4e487b71000000000000000000000000000000000000000000000000000000005f52604160045260245ffd5b7f4e487b71000000000000000000000000000000000000000000000000000000005f52602260045260245ffd5b5f60028204905060018216806105a157607f821691505b6020821081036105b4576105b361055d565b5b50919050565b5f819050815f5260205f209050919050565b5f6020601f8301049050919050565b5f82821b905092915050565b5f600883026106167fffffffffffffffffffffffffffffffffffffffffffffffffffffffffffffffff826105db565b61062086836105db565b95508019841693508086168417925050509392505050565b5f819050919050565b5f61065b610656610651846104c8565b610638565b6104c8565b9050919050565b5f819050919050565b61067483610641565b61068861068082610662565b8484546105e7565b825550505050565b5f5f905090565b61069f610690565b6106aa81848461066b565b505050565b5b818110156106cd576106c25f82610697565b6001810190506106b0565b5050565b601f821115610712576106e3816105ba565b6106ec846105cc565b810160208510156106fb578190505b61070f610707856105cc565b8301826106af565b50505b505050565b5f82821c905092915050565b5f6107325f1984600802610717565b1980831691505092915050565b5f61074a8383610723565b9150826002028217905092915050565b61076382610526565b67ffffffffffffffff81111561077c5761077b610530565b5b610786825461058a565b6107918282856106d1565b5f60209050601f8311600181146107c2575f84156107b0578287015190505b6107ba858261073f565b865550610821565b601f1984166107d0866105ba565b5f5b828110156107f7578489015182556001820191506020850194506020810190506107d2565b868310156108145784890151610810601f891682610723565b8355505b6001600288020188555050505b505050505050565b5f73ffffffffffffffffffffffffffffffffffffffff82169050919050565b5f61085282610829565b9050919050565b61086281610848565b82525050565b5f60208201905061087b5f830184610859565b92915050565b7f4e487b71000000000000000000000000000000000000000000000000000000005f52601160045260245ffd5b5f6108b8826104c8565b91506108c3836104c8565b92508282019050808211156108db576108da610881565b5b92915050565b6108ea816104c8565b82525050565b5f6060820190506109035f830186610859565b61091060208301856108e1565b61091d60408301846108e1565b949350505050565b5f6020820190506109385f8301846108e1565b92915050565b61178e8061094b5f395ff3fe608060405234801561000f575f5ffd5b506004361061011f575f3560e01c8063715018a6116100ab5780639dc29fac1161006f5780639dc29fac14610309578063a9059cbb14610325578063dd62ed3e14610355578063f2fde38b14610385578063fb932108146103a15761011f565b8063715018a6146102775780638b8dfa39146102815780638da5cb5b146102b157806395d89b41146102cf5780639aad69e7146102ed5761011f565b806323b872dd116100f257806323b872dd146101bf57806329b11cc0146101ef578063313ce5671461020d57806340c10f191461022b57806370a08231146102475761011f565b806306fdde0314610123578063095ea7b31461014157806313ad7fe11461017157806318160ddd146101a1575b5f5ffd5b61012b6103d1565b6040516101389190611240565b60405180910390f35b61015b600480360381019061015691906112f1565b610461565b6040516101689190611349565b60405180910390f35b61018b60048036038101906101869190611362565b61047c565b6040516101989190611349565b60405180910390f35b6101a96105f6565b6040516101b6919061139c565b60405180910390f35b6101d960048036038101906101d491906113b5565b6105ff565b6040516101e69190611349565b60405180910390f35b6101f7610628565b604051610204919061139c565b60405180910390f35b61021561062e565b6040516102229190611420565b60405180910390f35b610245600480360381019061024091906112f1565b610636565b005b610261600480360381019061025c9190611362565b61064c565b60405161026e919061139c565b60405180910390f35b61027f610691565b005b61029b60048036038101906102969190611362565b6106a4565b6040516102a8919061139c565b60405180910390f35b6102b96106b9565b6040516102c69190611448565b60405180910390f35b6102d76106e1565b6040516102e49190611240565b60405180910390f35b61030760048036038101906103029190611362565b610771565b005b610323600480360381019061031e91906112f1565b6107d1565b005b61033f600480360381019061033a91906112f1565b6107e7565b60405161034c9190611349565b60405180910390f35b61036f600480360381019061036a9190611461565b610804565b60405161037c919061139c565b60405180910390f35b61039f600480360381019061039a9190611362565b610886565b005b6103bb60048036038101906103b691906112f1565b61090a565b6040516103c89190611349565b60405180910390f35b6060600380546103e0906114cc565b80601f016020809104026020016040519081016040528092919081815260200182805461040c906114cc565b80156104575780601f1061042e57610100808354040283529160200191610457565b820191905f5260205f20905b81548152906001019060200180831161043a57829003601f168201915b5050505050905090565b5f5f339050610471818585610978565b600191505092915050565b5f61048561098a565b5f61048e6105f6565b600261049a9190611529565b670de0b6b3a76400006104ac3061064c565b6104b69190611529565b6104c09190611597565b90506008548160075f8673ffffffffffffffffffffffffffffffffffffffff1673ffffffffffffffffffffffffffffffffffffffff1681526020019081526020015f205461050e91906115c7565b111561054f576040517f08c379a000000000000000000000000000000000000000000000000000000000815260040161054690611644565b60405180910390fd5b5f606460508361055f9190611529565b6105699190611597565b90505f81836105789190611662565b90508160075f8773ffffffffffffffffffffffffffffffffffffffff1673ffffffffffffffffffffffffffffffffffffffff1681526020019081526020015f205f8282546105c691906115c7565b925050819055506105d8308684610a17565b6105ea306105e46106b9565b83610a17565b60019350505050919050565b5f600254905090565b5f6106128461060c610b07565b84610b0e565b61061d848484610a17565b600190509392505050565b60085481565b5f6012905090565b61063e610ba0565b6106488282610c27565b5050565b5f5f5f8373ffffffffffffffffffffffffffffffffffffffff1673ffffffffffffffffffffffffffffffffffffffff1681526020019081526020015f20549050919050565b610699610ba0565b6106a25f610ca6565b565b6007602052805f5260405f205f915090505481565b5f60055f9054906101000a900473ffffffffffffffffffffffffffffffffffffffff16905090565b6060600480546106f0906114cc565b80601f016020809104026020016040519081016040528092919081815260200182805461071c906114cc565b80156107675780601f1061073e57610100808354040283529160200191610767565b820191905f5260205f20905b81548152906001019060200180831161074a57829003601f168201915b5050505050905090565b610779610ba0565b600160065f8373ffffffffffffffffffffffffffffffffffffffff1673ffffffffffffffffffffffffffffffffffffffff1681526020019081526020015f205f6101000a81548160ff02191690831515021790555050565b6107d9610ba0565b6107e38282610d69565b5050565b5f6107fa6107f3610b07565b8484610a17565b6001905092915050565b5f60015f8473ffffffffffffffffffffffffffffffffffffffff1673ffffffffffffffffffffffffffffffffffffffff1681526020019081526020015f205f8373ffffffffffffffffffffffffffffffffffffffff1673ffffffffffffffffffffffffffffffffffffffff1681526020019081526020015f2054905092915050565b61088e610ba0565b5f73ffffffffffffffffffffffffffffffffffffffff168173ffffffffffffffffffffffffffffffffffffffff16036108fe575f6040517f1e4fbdf70000000000000000000000000000000000000000000000000000000081526004016108f59190611448565b60405180910390fd5b61090781610ca6565b50565b5f610913610ba0565b5f61091d3061064c565b905082811015610962576040517f08c379a000000000000000000000000000000000000000000000000000000000815260040161095990611705565b60405180910390fd5b61096d308585610a17565b600191505092915050565b6109858383836001610de8565b505050565b60065f3373ffffffffffffffffffffffffffffffffffffffff1673ffffffffffffffffffffffffffffffffffffffff1681526020019081526020015f205f9054906101000a900460ff16610a1557336040517fad353c00000000000000000000000000000000000000000000000000000000008152600401610a0c9190611448565b60405180910390fd5b565b5f73ffffffffffffffffffffffffffffffffffffffff168373ffffffffffffffffffffffffffffffffffffffff1603610a87575f6040517f96c6fd1e000000000000000000000000000000000000000000000000000000008152600401610a7e9190611448565b60405180910390fd5b5f73ffffffffffffffffffffffffffffffffffffffff168273ffffffffffffffffffffffffffffffffffffffff1603610af7575f6040517fec442f05000000000000000000000000000000000000000000000000000000008152600401610aee9190611448565b60405180910390fd5b610b02838383610fb7565b505050565b5f33905090565b5f610b198484610804565b90507fffffffffffffffffffffffffffffffffffffffffffffffffffffffffffffffff8114610b9a5781811015610b8b578281836040517ffb8f41b2000000000000000000000000000000000000000000000000000000008152600401610b8293929190611723565b60405180910390fd5b610b9984848484035f610de8565b5b50505050565b610ba8610b07565b73ffffffffffffffffffffffffffffffffffffffff16610bc66106b9565b73ffffffffffffffffffffffffffffffffffffffff1614610c2557610be9610b07565b6040517f118cdaa7000000000000000000000000000000000000000000000000000000008152600401610c1c9190611448565b60405180910390fd5b565b5f73ffffffffffffffffffffffffffffffffffffffff168273ffffffffffffffffffffffffffffffffffffffff1603610c97575f6040517fec442f05000000000000000000000000000000000000000000000000000000008152600401610c8e9190611448565b60405180910390fd5b610ca25f8383610fb7565b5050565b5f60055f9054906101000a900473ffffffffffffffffffffffffffffffffffffffff1690508160055f6101000a81548173ffffffffffffffffffffffffffffffffffffffff021916908373ffffffffffffffffffffffffffffffffffffffff1602179055508173ffffffffffffffffffffffffffffffffffffffff168173ffffffffffffffffffffffffffffffffffffffff167f8be0079c531659141344cd1fd0a4f28419497f9722a3daafe3b4186f6b6457e060405160405180910390a35050565b5f73ffffffffffffffffffffffffffffffffffffffff168273ffffffffffffffffffffffffffffffffffffffff1603610dd9575f6040517f96c6fd1e000000000000000000000000000000000000000000000000000000008152600401610dd09190611448565b60405180910390fd5b610de4825f83610fb7565b5050565b5f73ffffffffffffffffffffffffffffffffffffffff168473ffffffffffffffffffffffffffffffffffffffff1603610e58575f6040517fe602df05000000000000000000000000000000000000000000000000000000008152600401610e4f9190611448565b60405180910390fd5b5f73ffffffffffffffffffffffffffffffffffffffff168373ffffffffffffffffffffffffffffffffffffffff1603610ec8575f6040517f94280d62000000000000000000000000000000000000000000000000000000008152600401610ebf9190611448565b60405180910390fd5b8160015f8673ffffffffffffffffffffffffffffffffffffffff1673ffffffffffffffffffffffffffffffffffffffff1681526020019081526020015f205f8573ffffffffffffffffffffffffffffffffffffffff1673ffffffffffffffffffffffffffffffffffffffff1681526020019081526020015f20819055508015610fb1578273ffffffffffffffffffffffffffffffffffffffff168473ffffffffffffffffffffffffffffffffffffffff167f8c5be1e5ebec7d5bd14f71427d1e84f3dd0314c0f7b2291e5b200ac8c7c3b92584604051610fa8919061139c565b60405180910390a35b50505050565b5f73ffffffffffffffffffffffffffffffffffffffff168373ffffffffffffffffffffffffffffffffffffffff1603611007578060025f828254610ffb91906115c7565b925050819055506110d5565b5f5f5f8573ffffffffffffffffffffffffffffffffffffffff1673ffffffffffffffffffffffffffffffffffffffff1681526020019081526020015f2054905081811015611090578381836040517fe450d38c00000000000000000000000000000000000000000000000000000000815260040161108793929190611723565b60405180910390fd5b8181035f5f8673ffffffffffffffffffffffffffffffffffffffff1673ffffffffffffffffffffffffffffffffffffffff1681526020019081526020015f2081905550505b5f73ffffffffffffffffffffffffffffffffffffffff168273ffffffffffffffffffffffffffffffffffffffff160361111c578060025f8282540392505081905550611166565b805f5f8473ffffffffffffffffffffffffffffffffffffffff1673ffffffffffffffffffffffffffffffffffffffff1681526020019081526020015f205f82825401925050819055505b8173ffffffffffffffffffffffffffffffffffffffff168373ffffffffffffffffffffffffffffffffffffffff167fddf252ad1be2c89b69c2b068fc378daa952ba7f163c4a11628f55a4df523b3ef836040516111c3919061139c565b60405180910390a3505050565b5f81519050919050565b5f82825260208201905092915050565b8281835e5f83830152505050565b5f601f19601f8301169050919050565b5f611212826111d0565b61121c81856111da565b935061122c8185602086016111ea565b611235816111f8565b840191505092915050565b5f6020820190508181035f8301526112588184611208565b905092915050565b5f5ffd5b5f73ffffffffffffffffffffffffffffffffffffffff82169050919050565b5f61128d82611264565b9050919050565b61129d81611283565b81146112a7575f5ffd5b50565b5f813590506112b881611294565b92915050565b5f819050919050565b6112d0816112be565b81146112da575f5ffd5b50565b5f813590506112eb816112c7565b92915050565b5f5f6040838503121561130757611306611260565b5b5f611314858286016112aa565b9250506020611325858286016112dd565b9150509250929050565b5f8115159050919050565b6113438161132f565b82525050565b5f60208201905061135c5f83018461133a565b92915050565b5f6020828403121561137757611376611260565b5b5f611384848285016112aa565b91505092915050565b611396816112be565b82525050565b5f6020820190506113af5f83018461138d565b92915050565b5f5f5f606084860312156113cc576113cb611260565b5b5f6113d9868287016112aa565b93505060206113ea868287016112aa565b92505060406113fb868287016112dd565b9150509250925092565b5f60ff82169050919050565b61141a81611405565b82525050565b5f6020820190506114335f830184611411565b92915050565b61144281611283565b82525050565b5f60208201905061145b5f830184611439565b92915050565b5f5f6040838503121561147757611476611260565b5b5f611484858286016112aa565b9250506020611495858286016112aa565b9150509250929050565b7f4e487b71000000000000000000000000000000000000000000000000000000005f52602260045260245ffd5b5f60028204905060018216806114e357607f821691505b6020821081036114f6576114f561149f565b5b50919050565b7f4e487b71000000000000000000000000000000000000000000000000000000005f52601160045260245ffd5b5f611533826112be565b915061153e836112be565b925082820261154c816112be565b91508282048414831517611563576115626114fc565b5b5092915050565b7f4e487b71000000000000000000000000000000000000000000000000000000005f52601260045260245ffd5b5f6115a1826112be565b91506115ac836112be565b9250826115bc576115bb61156a565b5b828204905092915050565b5f6115d1826112be565b91506115dc836112be565b92508282019050808211156115f4576115f36114fc565b5b92915050565b7f4c696d69742072656163686564000000000000000000000000000000000000005f82015250565b5f61162e600d836111da565b9150611639826115fa565b602082019050919050565b5f6020820190508181035f83015261165b81611622565b9050919050565b5f61166c826112be565b9150611677836112be565b925082820390508181111561168f5761168e6114fc565b5b92915050565b7f546f6b656e3a20696e73756666696369656e7420636f6e74726163742062616c5f8201527f616e636500000000000000000000000000000000000000000000000000000000602082015250565b5f6116ef6024836111da565b91506116fa82611695565b604082019050919050565b5f6020820190508181035f83015261171c816116e3565b9050919050565b5f6060820190506117365f830186611439565b611743602083018561138d565b611750604083018461138d565b94935050505056fea2646970667358221220efbef027f4d9eeb4d94a5dc251ca5a71babc654e4f94070535fcc78ed28443ea64736f6c634300081c0033","linkReferences":{}},"methodIdentifiers":{"allowance(address,address)":"dd62ed3e","approve(address,uint256)":"095ea7b3","balanceOf(address)":"70a08231","burn(address,uint256)":"9dc29fac","decimals()":"313ce567","distribute(address,uint256)":"fb932108","maxDistributionPerWallet()":"29b11cc0","mint(address,uint256)":"40c10f19","name()":"06fdde03","owner()":"8da5cb5b","renounceOwnership()":"715018a6","setAuthorizedContract(address)":"9aad69e7","symbol()":"95d89b41","totalDistributed(address)":"8b8dfa39","totalSupply()":"18160ddd","transfer(address,uint256)":"a9059cbb","transferFrom(address,address,uint256)":"23b872dd","transferGenerationNumber(address)":"13ad7fe1","transferOwnership(address)":"f2fde38b"},"id":8}